:020000040800F2
:10000000C8F3012001940008B5050008B7050008F1
:10001000BB050008BF050008C3050008000000007C
:10002000000000000000000000000000C7050008FC
:10003000C9050008000000005F79010811C8000828
:100040001B9400081B9400081B9400081B940008D4
:100050001B9400081B9400081B9400081B940008C4
:100060001B9400081B9400081B9400081B940008B4
:100070001B9400081B9400081B9400081B940008A4
:100080001B9400081B9400081B9400081B94000894
:100090001B9400081B9400081B9400081B94000884
:1000A0001B9400081B9400081B9400081B94000874
:1000B0001B940008DB0A00081B9400081B9400082E
:1000C0001B9400081B9400081B9400081B94000854
:1000D0001B940008FBC900081B9400081B9400082F
:1000E0001B9400081B9400081B9400081B94000834
:1000F0001B9400081B9400081B9400081B94000824
:100100001B9400081B9400081B9400081B94000813
:100110001B9400081B9400081B9400081B94000803
:100120001B9400081B9400081B9400081B940008F3
:100130001B9400081B9400081B9400081B940008E3
:100140001B9400081B9400081B9400081B940008D3
:100150001B9400081B9400081B9400081B940008C3
:100160001B9400081B9400081B9400081B940008B3
:100170001B9400081B9400081B9400081B940008A3
:100180001B9400081B940008DFF80CD017F02AFB22
:1001900000480047F5030008C8F301200EB512E03F
:1001A000DA48006808B9012000E00020D74908605B
:1001B00002A808214FF4FA730022CDE9001011467D
:1001C000104615F0FAFEEBE710E0012C06D0022CE9
:1001D00005D0032C04D0042C04D102E002E001E09D
:1001E00000E000BF00BF14200CF077FBEDE70EB578
:1001F0000BE01CF075F902A8082105230022CDE9C7
:1002000000101146104615F0D8FEF2E7042022F047
:1002100017FEBF4822F026FEBE4817F0C9FDBE48B3
:1002200017F09CFEBD4818F01BFABD4818F05CFFA3
:10023000BC481DF0D1FBBC481FF02EFEBB4820F08F
:10024000E9F9BB4820F00AFBBA4820F0DBFBBA48CA
:1002500020F04EFEB94820F051FFB94820F090FF41
:1002600006F0BBFD06F08CFE02E00A201AF08EFBC1
:10027000FBE730B58BB00446002500BF0DF0BEFB98
:100280000AA813F028FB0AAA012108460FF0B1FBC7
:10029000012108030BF024F8042022F0D1FD1BF00B
:1002A00079F900BF00BF00BF0DF0E0FC054600BFBC
:1002B00000BFA4480078401CA249087000BF00BFDE
:1002C00028460DF0D7FC00BF00BF00BF0AA80321DD
:1002D00000220592CDE90621089010464FF40061F6
:1002E000CC22994BCDE90132CDE903100520002342
:1002F000AFF2E70295A10090984813F0C3FE0AA858
:10030000032100220592CDE90621089010468021A4
:100310000C22934BCDE90132CDE9031004200023D8
:10032000AFF235128FA10090914813F0ABFE0AA8EE
:10033000032100220592CDE9062108901046802174
:100340000C228C4BCDE90132CDE9031006200023AD
:10035000AFF28B1288A100908A4813F093FE0AA88E
:10036000032100220592CDE9062108901046802144
:100370000C22854BCDE90132CDE903100820002382
:10038000AFF2E71281A10090834813F07BFE0AA927
:10039000824815F0ECF900BF00BF00BF0DF066FC0D
:1003A000054600BF00BF67480078401E65490870D9
:1003B00008460078A0B97A480088002809DD00BF07
:1003C00000BF28460DF056FC00BF00BF0FF0FAFE3C
:1003D0000DE000BF00BF28460DF04CFC00BF06E05A
:1003E00000BF00BF28460DF045FC00BF00BF00BFA6
:1003F0000BB030BD8AB000244FF4A06009F012F8B1
:10040000A8200CF011FA4FF4E1300CF0A0FA01F042
:1004100082F806F0E0F800F0E1F900F07BFB00F074
:1004200099FB00F0E9FA00F0F9F942F2CF0142F24B
:100430000F7000F027FB04F045F800200CF03DFBA6
:1004400001200CF03AFB09A80FF0AAF800BF00BF8A
:1004500000BF0DF00BFC044600BF00BF3948007818
:10046000401C3849087000BF00BF20460DF002FC58
:1004700000BF00BF00BF09A8032100220592CDE9FB
:100480000621089010464FF480616622454BCDE965
:100490000132CDE9031003200023AFF2292242A14B
:1004A00000903E4813F0EEFD00BF00BF00BF0DF00E
:1004B000DDFB044600BF00BF22480078401E2149F2
:1004C000087008460078A0B935480088002809DD82
:1004D00000BF00BF20460DF0CDFB00BF00BF0FF0F6
:1004E00071FE0DE000BF00BF20460DF0C3FB00BF52
:1004F00006E000BF00BF20460DF0BCFB00BF00BF00
:1005000000BF09A80FF015FB00BFFEE7A48242421E
:1005100000808000797B0108617E01080583010865
:100520003D8C010899D901082DFA01081101020832
:10053000D90702084D0902080D0D0208D10F020863
:1005400019110208100A0020B8290020456D7769AA
:100550006E64656D6F207461736B0000F428002079
:10056000F4260020546F756368207461736B00007B
:10057000302600207C4A00204B6579207461736B23
:1005800000000000B8490020404D00204C65643058
:10059000207461736B0000007C4C00206C150020FF
:1005A000D4090020301600207374617274207461C5
:1005B000736B0000704700BFFEE700BFFEE700BF9F
:1005C000FEE700BFFEE77047704700000CB5002053
:1005D000019000907648006840F4803074490860CB
:1005E00000BF7348006800F4003000900198401C80
:1005F0000190009818B90198B0F5A04FF1D16C485E
:10060000006800F4003010B10120009001E00020EB
:1006100000900098012846D165484030006840F0BD
:1006200080506349403108606248006840F44040AF
:10063000604908605E48083000685D49083108601C
:100640000846006840F4004008600846006840F42E
:10065000A05008605848091F0860081F006840F053
:100660008070091F086000BF5148006800F00070EA
:100670000028F9D040F20570504908604C48083015
:10068000006820F003004A49083108600846006805
:1006900040F00200086000BF45480830006800F0E4
:1006A0000C000828F8D10CBD10B54548006840F48E
:1006B0007000434908603E48006840F001003C4932
:1006C000086000203A4908310860394800683D490F
:1006D0000840374908603C48091D0860081F006849
:1006E00020F48020091F0860002031490C31086087
:1006F000FFF76CFF4FF0006031498039086010BD92
:1007000070B500200022022300240221284D083564
:100710002D6805F00C0020B1042806D0082834D13B
:1007200007E02A4D2A4E356033E02A4D284E3560C9
:100730002FE01F4D2D1D2D68C5F380541C4D2D1D20
:100740002D6805F03F0154B1224DB5FBF1F5184E6F
:10075000361D3668C6F3881605FB06F209E01B4D08
:10076000B5FBF1F5124E361D3668C6F3881605FB4B
:1007700006F20F4D2D1D2D68C5F301456D1C6B0054
:10078000B2FBF3F5124E356003E0104D104E3560AC
:1007900000BF00BF064D08352D68C5F303150E4E8A
:1007A000705D0B4D2D68C540094E356070BD000071
:1007B000003802400070004008544007003C0240EE
:1007C00088ED00E0FFFFF6FE103000240024F40066
:1007D0000000002000127A00040000201CB5012156
:1007E00020200AF07DFD4FF4C060009001208DF8BC
:1007F000040000208DF806008DF8070003208DF816
:100800000500694604480AF0CDFA4FF4C061024879
:100810000AF044FB1CBD00000014024000B58DB07E
:10082000012108460AF05CFD012108020AF0B2FD30
:1008300020200B9003208DF8300000208DF833002D
:100840000BA94F480AF0AEFA012108020AF0F7FDA1
:1008500000214FF480700AF0F2FD002007900A900A
:1008600009904FF48030089007A808F085FE00201A
:1008700001908DF808008DF8090003900590012083
:100880008DF8180001A93F4808F047FE01213D48B6
:1008900008F089FE0DB000BD10B504460723012203
:1008A0002146384808F0BFFE364808F018FF00BF60
:1008B0000221344809F034F80028F9D0314808F012
:1008C0004AFF10BD2DE9F04107460C4600250026E1
:1008D00008E03846FFF7E0FF054405200BF0FDFF78
:1008E000701CC6B2A642F4DBB5FBF4F080B2BDE8E2
:1008F000F08110B52DED088B0A211020FFF7E2FFE3
:1009000008EE100AB8EE480A10EE100A16F00FFEB4
:1009100041EC1A0B9FED1C0B53EC102B16F0D0FC86
:1009200041EC190B9FED1A0B53EC102B51EC190BEA
:1009300016F0C0FC41EC1B0B9FED170B53EC102B7A
:1009400016F030FD41EC1A0B9FED150B53EC102BFC
:1009500016F00FFC41EC190B9FED130B53EC102B11
:1009600051EC190B16F0ACFC41EC190B41EC1A0BD5
:1009700016F0A5FD04B22046BDEC088B10BD0000AA
:1009800000000240002001406666666666664A3FD7
:1009900052B81E85EB51E83F7B14AE47E17A643FC5
:1009A0000000000000003940000000000000594035
:1009B000F8B504460D4617461E468DF802708DF8B0
:1009C00001508DF800608DF803406946002009F061
:1009D000CBF9F8BDF8B504460D4617461E468DF80E
:1009E00000408DF801508DF802708DF80360694663
:1009F000002009F01BF9F8BD3EB541F6FF74012156
:100A000008070AF0B6FC01200BF045FE002009F0B3
:100A100069FD41F2BA31884231D001200AF0FDFA75
:100A200004E0601C84B20A200BF057FF41200AF05A
:100A3000ADFA0028F5D00CB901203EBD4FF480700E
:100A40000AF0ECFB01200AF004FC7F200190FF205B
:100A5000029000200090684609F04DF800231A46E5
:100A600003211120FFF7B6FF02230E2206211620D4
:100A7000FFF79EFF41F2BA31002009F026FD002069
:100A8000DBE700007FB505460C46012102200AF095
:100A900070FC0295ADF804400020ADF80600ADF8FA
:100AA0000C0001A918480AF01CFE01221146164844
:100AB0000BF0B8FA012114480AF09CFE1D208DF8B5
:100AC000000002208DF801008DF8020001208DF851
:100AD0000300684608F0ABFC7FBD10B501210A4851
:100AE0000BF0B7FA01280AD10848006808B90120BC
:100AF00000E0002005490860012005490860012147
:100B000001480BF0B7FA10BD00040040A882424231
:100B1000140000201CB5012120200AF0E1FB4FF455
:100B20008070009001208DF8040000208DF80600F0
:100B300003208DF8050002208DF80700694604485F
:100B40000AF030F94FF4807101480AF0A9F91CBD90
:100B5000001402401CB5012111200AF0C1FB1C2029
:100B6000009000208DF8040001208DF807006946F0
:100B70002B480AF017F90120009002208DF8070099
:100B8000694628480AF00EF91CBD10B5044614B198
:100B90000120254908702448007858B3234800688C
:100BA00058B12248001F006838B120480838006852
:100BB00018B11F48006801281CD10A200BF08DFED7
:100BC0000020194908701948006808B9012010BDB3
:100BD0001648001F006808B90220F8E713480838D3
:100BE000006808B90320F2E711480068012815D110
:100BF0000420ECE70D48006801280FD10B48001FC6
:100C0000006801280AD1094808380068012805D180
:100C10000748006810B90120034908700020D6E792
:100C20000010024000000240180000201002424262
:100C30000002404201B5BDF800000090BDF8000080
:100C4000FE49088008BD01B5BDF800000090BDF860
:100C50000000FA49891C088008BD08B5F748801CC7
:100C600000880090BDF8000008BDF44A10804FF0E5
:100C7000D842A2F88010704710B504462046FFF70E
:100C8000D9FF05200BF0FFFDFFF7E7FF10BDEC4893
:100C90000089EA4908807047E849891C0880704744
:100CA00030B5014601F01F04C1F34513CA0AE5023D
:100CB00005EB43151544A8B230BD00BF0100A0F1FB
:100CC0000102D0B2FAD1704710B502460C46DC489A
:100CD000808841F66311884247D1D9488079A8B904
:100CE000D7480088401E801A82B2D5494889FFF74C
:100CF000A1FF0020FFF7A7FF0020FFF7A4FF1012BD
:100D0000FFF7A1FFD0B2FFF79EFF16E0CC4948895C
:100D1000FFF790FF1012FFF796FFD0B2FFF793FF97
:100D2000C7490988491EC1F30F20FFF78CFFC4494A
:100D30000978491EC8B2FFF786FFC1498889FFF7C5
:100D400079FF2012FFF77FFFE0B2FFF77CFFBC497D
:100D50004988491EC1F30F20FFF775FFB84989780C
:100D6000491EC8B2FFF76FFF3AE0B548808845F2E8
:100D70001051884220D1B2494889FFF75BFF101219
:100D8000FFF761FFAE494989491C88B2FFF752FF5E
:100D9000D0B2FFF758FFAA498889FFF74BFF20120E
:100DA000FFF751FFA6498989491C88B2FFF742FF26
:100DB000E0B2FFF748FF13E0A1494889FFF73AFF87
:100DC0001012FFF740FFD0B2FFF73DFF9C49888922
:100DD000FFF730FF2012FFF736FFE0B2FFF733FFD7
:100DE00010BD2DE9F04105460E4600240027A0461F
:100DF00093480088A84203DD91484088B04202DC55
:100E00000020BDE8F08131462846FFF75DFF8C48A1
:100E1000808845F21051884204D14FF43850FFF7D2
:100E200009FF02E02E20FFF705FFFFF716FF04463B
:100E30008348808841F66311884201D12046E0E76B
:100E4000FFF70BFF0446FFF708FF8046E7B24FF6B7
:100E5000FF7000EA0727E012C002B91240EA411011
:100E600040EAE820CDE700B57548808845F210518A
:100E7000884204D14FF42450FFF7DCFE02E0292021
:100E8000FFF7D8FE00BD00B56D48808845F21051CF
:100E9000884204D14FF42050FFF7CCFE02E0282016
:100EA000FFF7C8FE00BDF0B50546002400276448E2
:100EB0008079012805D16248808841F66311884213
:100EC00008D15F488079F0B95D48808841F66311A8
:100ED000884218D1082D15D2DFE805F00406080A6B
:100EE0000C0E101206250DE007250BE0042509E085
:100EF000052507E0012505E0002503E0032501E0C5
:100F0000022500BF00BF082D1CD2DFE805F0040653
:100F1000090C0F12151800BF14E044F0800411E012
:100F200044F040040EE044F0C0040BE044F0200420
:100F300008E044F0600405E044F0A00402E044F05E
:100F4000E00400BF00BF3E48808845F2105188424F
:100F500002D14FF4585700E036273948808849F2CB
:100F60004131884205D03648808847F289718842ED
:100F700001D144F0080421463846FFF776FE304898
:100F8000808841F6631188421DD004F0200068B1CA
:100F90002B4800882A494988884214DA284806885C
:100FA000408827490880084646800CE0244800888D
:100FB00023494988884206DD21480688408820491F
:100FC0000880084646801E48808845F210518842B5
:100FD00057D11B494889FFF72DFE0020FFF733FE4C
:100FE00017494989491C88B2FFF724FE0020FFF702
:100FF0002AFE13494989891C88B2FFF71BFE104954
:101000000988491EC1F30F20FFF71DFE0C494989CD
:10101000C91C88B2FFF70EFE09490978491EC8B2FB
:10102000FFF711FE06498889FFF704FE0020FFF74D
:101030000AFE03498989491C88B203E07E00006CDE
:10104000404F0020FFF7F6FD0020FFF7FCFDFE49B2
:101050008989891C88B2FFF7EDFDFB494988491E43
:10106000C1F30F20FFF7EFFDF7498989C91C88B24A
:10107000FFF7E0FDF4498978491EC8B2FFF7E3FDA8
:101080002DE0F1494889FFF7D5FD0020FFF7DBFD92
:101090000020FFF7D8FDEC490988491EC1F30F2055
:1010A000FFF7D1FDE8490978491EC8B2FFF7CBFD2B
:1010B000E5498889FFF7BEFD0020FFF7C4FD002049
:1010C000FFF7C1FDE0494988491EC1F30F20FFF732
:1010D000BAFDDD498978491EC8B2FFF7B4FDF0BDFD
:1010E00030B504460D4629462046FFF7EDFDFFF7D3
:1010F000CEFDD6480088D649088030BD30B50446BC
:101100000D46D148808845F21051884220D1CE4901
:101110004889FFF78FFD2012FFF795FDCA494989DD
:10112000491C88B2FFF786FDE0B2FFF78CFDC64987
:101130008889FFF77FFD2812FFF785FDC24989895D
:10114000491C88B2FFF776FDE8B2FFF77CFD42E06C
:10115000BD48808841F66311884228D1BA48807919
:1011600020B9B9480088401E001B84B2B64948899E
:10117000FFF760FD2012FFF766FDE0B2FFF763FDA9
:101180002012FFF760FDE0B2FFF75DFDAE498889F0
:10119000FFF750FD2812FFF756FDE8B2FFF753FDA9
:1011A0002812FFF750FDE8B2FFF74DFD13E0A64906
:1011B0004889FFF73FFD2012FFF745FDE0B2FFF73A
:1011C00042FDA1498889FFF735FD2812FFF73BFD55
:1011D000E8B2FFF738FD9C4800899D49891E0880C8
:1011E0004FF0D840A0F8802030BD70B52DED048BB5
:1011F0000446BE20FFF71EFD0520FFF724FD204614
:1012000016F050F941EC190B9FED920B53EC102B9B
:1012100016F056F841EC180B16F070F985B2284616
:10122000FFF711FD0120FFF70EFDFF20FFF70BFD7B
:101230000020FFF708FD0020FFF705FDBDEC048B43
:1012400070BD10B5044680488471002C45D1F02053
:101250007D4908804FF4A07048800846808845F298
:101260001051884210D14FF43050774908814FF423
:10127000285048814FF42C5088814FF4F07008803A
:101280004FF4487048801AE06F48808841F6631137
:1012900088420DD12C206C4908812B2048812A20BE
:1012A00088814FF4F07008804FF44870488006E061
:1012B0002C20654908812A2048812B20888162489A
:1012C000808845F2103188424CD14FF4A0705E49BD
:1012D00008804FF4F070488044E04FF4A0705A4901
:1012E0000880F02048800846808845F210518842E6
:1012F00010D14FF43050544908814FF428504881A0
:101300004FF42C5088814FF4487008804FF4F070EF
:1013100048801AE04C48808841F6631188420DD11C
:101320002C20494908812A2048812B2088814FF4AC
:10133000487008804FF4F070488006E02C20424945
:1013400008812A2048812B2088813F48808845F2E7
:101350001031884206D14FF4F0703B4908804FF4B9
:10136000A07048800020FFF79EFD10BD2DE9F041E0
:1013700004460D461E46A018401E87B2A819401EFE
:101380001FFA80F83048808841F66311884231D1D5
:101390002D48807901282DD02B480088801A001B09
:1013A00084B2A819401E86B227494889FFF742FC3B
:1013B0002012FFF748FCE0B2FFF745FCA118491ED8
:1013C000C1F30F20FFF73FFCA118491EC8B2FFF779
:1013D0003AFC1D498889FFF72DFC2812FFF733FCE2
:1013E000E8B2FFF730FC3012FFF72DFCF0B2FFF748
:1013F0002AFC79E01448808845F21051884251D186
:1014000011494889FFF716FC2012FFF71CFC0E4912
:101410004989491C88B2FFF70DFCE0B2FFF713FCC5
:1014200009494989891C88B2FFF704FC3812FFF783
:101430000AFC05494989C91C88B2FFF7FBFBF8B2D1
:10144000FFF701FC004909E0404F00201A0000208E
:101450008000006C66666666666604408889FFF7F1
:10146000E9FB2812FFF7EFFBFD498989491C88B287
:10147000FFF7E0FBE8B2FFF7E6FBF9498989891C31
:1014800088B2FFF7D7FB4FEA2820FFF7DCFBF449CF
:101490008989C91C88B2FFF7CDFB08F0FF00FFF770
:1014A000D2FB21E0EE494889FFF7C4FB2012FFF789
:1014B000CAFBE0B2FFF7C7FB3812FFF7C4FBF8B274
:1014C000FFF7C1FBE6498889FFF7B4FB2812FFF755
:1014D000BAFBE8B2FFF7B7FB4FEA2820FFF7B3FBF0
:1014E00008F0FF00FFF7AFFBBDE8F08170B50446E0
:1014F0000026DB4805884088454300210846FFF761
:10150000E3FBFFF7C4FB00BF02E0D6480480761C73
:10151000AE42FAD370BD00B5A1B0002020900121E9
:101520007A2009F0DDFE0121084609F011FF4FF491
:1015300000401E9001208DF87C0000208DF87E0078
:1015400002208DF87D0001208DF87F001EA9C6487D
:1015500009F028FC4CF233701E9002208DF87C00BC
:1015600000208DF87E0003208DF87D0001208DF88D
:101570007F001EA9BD4809F015FC4FF680701E9033
:1015800002208DF87C0000208DF87E0003208DF86D
:101590007D0001208DF87F001EA9B54809F002FCEE
:1015A0004FF480501E9002208DF87C0000208DF8B2
:1015B0007E0003208DF87D0001208DF87F001EA99C
:1015C000AC4809F0EFFB4FF480501E9002208DF8DC
:1015D0007C0000208DF87E0003208DF87D00012026
:1015E0008DF87F001EA9A44809F0DCFB0C22002125
:1015F0009E4809F062FC0C2201219C4809F05DFC28
:101600000C220421994809F058FC0C220521974826
:1016100009F053FC0C220821944809F04EFC0C22DE
:101620000921924809F049FC0C220A218F4809F04F
:1016300044FC0C220E218D4809F03FFC0C220F21A6
:101640008A4809F03AFC0C220721894809F035FC48
:101650000C220821864809F030FC0C22092184481C
:1016600009F02BFC0C220A21814809F026FC0C22EF
:101670000B217F4809F021FC0C2211467C4809F01F
:101680001CFC0C220D217A4809F017FC0C220E21BB
:10169000774809F012FC0C220F21754809F00DFC67
:1016A0000C221146734809F008FC0C2211467248BE
:1016B00009F003FC0F200890002009903C200A90BC
:1016C00000200B900C900D900E90092001900020AE
:1016D0000290082003900020049005900690079047
:1016E00006200F90002010901190102012900020E2
:1016F000139015901490169017904FF480501890F6
:10170000002019904FF480401A9000201B9008A8E8
:101710001C9001A81D900FA808F0F5FF01210620DC
:1017200009F07CF832200BF0D8F8D320FFF782FACA
:10173000FFF793FA4A498880FFF78FFA4849888073
:10174000FFF78BFA46498880084680884FF6FF717C
:1017500001EA002042498880FFF77FFA40498988E2
:1017600008433F4988800846808849F241318842D1
:1017700075D00420FFF75EFAFFF76FFA38498880CA
:10178000FFF76BFA36498880FFF767FA344988809B
:10179000084680884FF6FF7101EA002030498880B2
:1017A000FFF75BFA2E49898808432D49888008464F
:1017B000808848F25251884203D147F28970284903
:1017C00088802748808847F289718842D0D0D42009
:1017D000FFF730FAFFF741FA21498880FFF73DFA19
:1017E0001F498880FFF739FA1D498880084680889C
:1017F0004FF6FF7101EA002019498880FFF72DFAA2
:10180000174989880843164988800846808845F228
:101810001031884275D055214FF47040FFF725FAFA
:10182000AA214FF20100FFF720FA52214FF20200E5
:10183000FFF71BFA08214FF20300FFF716FA012108
:101840004FF20400FFF711FA4FF44540FFF7F2F9A9
:10185000FFF703FA02498880084680880EE050E0CE
:10186000404F00208000006C00040240000C024049
:101870000010024000140240001802404FF6FF71B1
:1018800001EA0020FE4988804CF20150FFF7D2F9AE
:10189000FFF7E3F9FA4989880843F949888008463F
:1018A0008088B0F5004F02D145F210508880F4488E
:1018B000808845F21051884223D0A120FFF7BAF961
:1018C000FFF7CBF9EE498880FFF7C7F9EC4988802C
:1018D000084680884FF6FF7101EA0020E8498880B9
:1018E000FFF7BBF9E64989880843E549888008463F
:1018F000808845F26171884203D141F66310E04966
:101900008880DF48808849F24131884211D0DC4824
:10191000808845F2103188420BD0D948808845F242
:101920001051884205D0D648808841F6631188421C
:101930001CD1D448006820F00F004FF02041C1F8BE
:101940001C010846D0F81C0120F47060C1F81C018D
:101950000846D0F81C0140F00300C1F81C010846FD
:10196000D0F81C0140F40070C1F81C01C448818803
:10197000C5A02BF09BFDC248808849F241318842C6
:101980007ED1CF20FFF756F90020FFF75CF9C12088
:10199000FFF759F93020FFF756F9ED20FFF74AF924
:1019A0006420FFF750F90320FFF74DF91220FFF7ED
:1019B0004AF98120FFF747F9E820FFF73BF9852036
:1019C000FFF741F91020FFF73EF97A20FFF73BF9C6
:1019D000CB20FFF72FF93920FFF735F92C20FFF73F
:1019E00032F90020FFF72FF93420FFF72CF90220FD
:1019F000FFF729F9F720FFF71DF92020FFF723F95A
:101A0000EA20FFF717F90020FFF71DF90020FFF784
:101A10001AF9C020FFF70EF91B20FFF714F9C120B7
:101A2000FFF708F90120FFF70EF9C520FFF702F9CB
:101A30003020FFF708F93020FFF705F9C720FFF73E
:101A4000F9F8B720FFF7FFF83620FFF7F3F8482042
:101A5000FFF7F9F83A20FFF7EDF85520FFF7F3F814
:101A6000B120FFF7E7F80020FFF7EDF81A20FFF7A5
:101A7000EAF8B620FFF7DEF80A20FFF7E4F800E006
:101A800097E0A220FFF7DFF8F220FFF7D3F800205D
:101A9000FFF7D9F82620FFF7CDF80120FFF7D3F89C
:101AA000E020FFF7C7F80F20FFF7CDF82A20FFF757
:101AB000CAF82820FFF7C7F80820FFF7C4F80E205F
:101AC000FFF7C1F80820FFF7BEF85420FFF7BBF876
:101AD000A920FFF7B8F84320FFF7B5F80A20FFF771
:101AE000B2F80F20FFF7AFF80020FFF7ACF80020A6
:101AF000FFF7A9F80020FFF7A6F80020FFF7A3F8EA
:101B0000E120FFF797F80020FFF79DF81520FFF779
:101B10009AF81720FFF797F80720FFF794F811209D
:101B2000FFF791F80620FFF78EF82B20FFF78BF8D0
:101B30005620FFF788F83C20FFF785F80520FFF7CF
:101B400082F81020FFF77FF80F20FFF77CF83F2086
:101B5000FFF779F83F20FFF776F80F20FFF773F8CB
:101B60002B20FFF767F80020FFF76DF80020FFF744
:101B70006AF80120FFF767F83F20FFF764F82A2092
:101B8000FFF758F80020FFF75EF80020FFF75BF83A
:101B90000020FFF758F8EF20FFF755F81120FFF766
:101BA00049F878200AF099FE2920FFF743F802F05F
:101BB000B2B83348808847F2897188426CD11120CD
:101BC000FFF738F878200AF088FE3620FFF732F861
:101BD0000020FFF738F83A20FFF72CF80520FFF730
:101BE00032F8B220FFF726F80C20FFF72CF80C2073
:101BF000FFF729F80020FFF726F83320FFF723F836
:101C00003320FFF720F8B720FFF714F83520FFF74F
:101C10001AF8BB20FFF70EF83220FFF714F8C020A7
:101C2000FFF708F80C20FFF70EF8C220FFF702F8C4
:101C30000120FFF708F8C320FEF7FCFF1020FFF794
:101C400002F8C420FEF7F6FF2020FEF7FCFFC620B6
:101C5000FEF7F0FF0F20FEF7F6FFD020FEF7EAFFB9
:101C6000A420FEF7F0FFA120FEF7EDFFE020FEF735
:101C7000E1FFD020FEF7E7FF0020FEF7E4FF0CE0D5
:101C8000404F00201C0100A0204C43442049443A0E
:101C900025780D0A0000000072E00220FEF7D3FF55
:101CA0000720FEF7D0FF0A20FEF7CDFF2820FEF721
:101CB000CAFF3220FEF7C7FF4420FEF7C4FF4220D0
:101CC000FEF7C1FF0620FEF7BEFF0E20FEF7BBFFAA
:101CD0001220FEF7B8FF1420FEF7B5FF1720FEF71D
:101CE000B2FFE120FEF7A6FFD020FEF7ACFF0020F8
:101CF000FEF7A9FF0220FEF7A6FF0720FEF7A3FFCD
:101D00000A20FEF7A0FF2820FEF79DFF3120FEF7F6
:101D10009AFF5420FEF797FF4720FEF794FF0E200E
:101D2000FEF791FF1C20FEF78EFF1720FEF78BFFBA
:101D30001B20FEF788FF1E20FEF785FF2A20FEF7F6
:101D400079FF0020FEF77FFF0020FEF77CFF0020D8
:101D5000FEF779FFEF20FEF776FF2B20FEF76AFFF4
:101D60000020FEF770FF0020FEF76DFF0120FEF758
:101D70006AFF3F20FEF767FF2920FEF75BFF16E7AB
:101D8000FE48808845F21031884240F07C87ED2083
:101D9000FEF750FF0120FEF756FFFE20FEF753FF2F
:101DA000EE20FEF747FFDE20FEF74DFF2120FEF775
:101DB0004AFFF120FEF73EFF0120FEF744FFDF203F
:101DC000FEF738FF1020FEF73EFFC420FEF732FF7B
:101DD0008F20FEF738FFC620FEF72CFF0020FEF70D
:101DE00032FFE220FEF72FFFE220FEF72CFFE22079
:101DF000FEF729FFBF20FEF71DFFAA20FEF723FFF5
:101E0000B020FEF717FF0D20FEF71DFF0020FEF7A4
:101E10001AFF0D20FEF717FF0020FEF714FF112018
:101E2000FEF711FF0020FEF70EFF1920FEF70BFF53
:101E30000020FEF708FF2120FEF705FF0020FEF737
:101E400002FF2D20FEF7FFFE0020FEF7FCFE3D20E6
:101E5000FEF7F9FE0020FEF7F6FE5D20FEF7F3FE2A
:101E60000020FEF7F0FE5D20FEF7EDFE0020FEF7FD
:101E7000EAFEB120FEF7DEFE8020FEF7E4FE002041
:101E8000FEF7E1FE8B20FEF7DEFE0020FEF7DBFE14
:101E90009620FEF7D8FE0020FEF7D5FEB220FEF712
:101EA000C9FE0020FEF7CFFE0020FEF7CCFE022088
:101EB000FEF7C9FE0020FEF7C6FE0320FEF7C3FEB4
:101EC0000020FEF7C0FEB320FEF7B4FE0020FEF7B0
:101ED000BAFE0020FEF7B7FE0020FEF7B4FE002099
:101EE000FEF7B1FE0020FEF7AEFE0020FEF7ABFECF
:101EF0000020FEF7A8FE0020FEF7A5FE0020FEF75A
:101F0000A2FE0020FEF79FFE0020FEF79CFE0020B0
:101F1000FEF799FE0020FEF796FE0020FEF793FEE6
:101F20000020FEF790FE0020FEF78DFE0020FEF759
:101F30008AFE0020FEF787FE0020FEF784FE0020C8
:101F4000FEF781FE0020FEF77EFE0020FEF77BFEFE
:101F50000020FEF778FE0020FEF775FEB420FEF7A5
:101F600069FE8B20FEF76FFE0020FEF76CFE9620C8
:101F7000FEF769FE0020FEF766FEA120FEF763FE75
:101F80000020FEF760FEB520FEF754FE0220FEF7AB
:101F90005AFE0020FEF757FE0320FEF754FE0020F5
:101FA000FEF751FE0420FEF74EFE0020FEF74BFE2A
:101FB000B620FEF73FFE0020FEF745FE0020FEF7AC
:101FC00042FEB720FEF736FE0020FEF73CFE002062
:101FD000FEF739FE3F20FEF736FE0020FEF733FE07
:101FE0005E20FEF730FE0020FEF72DFE6420FEF797
:101FF0002AFE0020FEF727FE8C20FEF724FE00209C
:10200000FEF721FEAC20FEF71EFE0020FEF71BFEB1
:10201000DC20FEF718FE0020FEF715FE7020FEF70C
:1020200012FE0020FEF70FFE9020FEF70CFE0020AF
:10203000FEF709FEEB20FEF706FE0020FEF703FE8A
:10204000DC20FEF700FE0020FEF7FDFDB820FEF7C5
:10205000F1FD0020FEF7F7FD0020FEF7F4FD002063
:10206000FEF7F1FD0020FEF7EEFD0020FEF7EBFD90
:102070000020FEF7E8FD0020FEF7E5FD0020FEF75A
:10208000E2FDBA20FEF7D6FD2420FEF7DCFD00209D
:10209000FEF7D9FD0020FEF7D6FD0020FEF7D3FDA8
:1020A000C120FEF7C7FD2020FEF7CDFD0020FEF782
:1020B000CAFD5420FEF7C7FD0020FEF7C4FDFF2037
:1020C000FEF7C1FD0020FEF7BEFDC220FEF7B2FD07
:1020D0000A20FEF7B8FD0020FEF7B5FD0420FEF74C
:1020E000B2FD0020FEF7AFFDC320FEF7A3FD3C20AC
:1020F000FEF7A9FD0020FEF7A6FD3A20FEF7A3FD9E
:102100000020FEF7A0FD3920FEF79DFD0020FEF720
:102110009AFD3720FEF797FD0020FEF794FD3C2046
:10212000FEF791FD0020FEF78EFD3620FEF78BFDB9
:102130000020FEF788FD3220FEF785FD0020FEF727
:1021400082FD2F20FEF77FFD0020FEF77CFD2C2076
:10215000FEF779FD0020FEF776FD2920FEF773FDDE
:102160000020FEF770FD2620FEF76DFD0020FEF733
:102170006AFD2420FEF767FD002001E0404F0020AB
:10218000FEF761FD2420FEF75EFD0020FEF75BFDFB
:102190002320FEF758FD0020FEF755FD3C20FEF7FA
:1021A00052FD0020FEF74FFD3620FEF74CFD0020CB
:1021B000FEF749FD3220FEF746FD0020FEF743FD05
:1021C0002F20FEF740FD0020FEF73DFD2C20FEF7FE
:1021D0003AFD0020FEF737FD2920FEF734FD0020F0
:1021E000FEF731FD2620FEF72EFD0020FEF72BFD29
:1021F0002420FEF728FD0020FEF725FD2420FEF711
:1022000022FD0020FEF71FFD2320FEF71CFD00200D
:10221000FEF719FDC420FEF70DFD6220FEF713FD49
:102220000020FEF710FD0520FEF70DFD0020FEF753
:102230000AFD8420FEF707FD0020FEF704FDF020D4
:10224000FEF701FD0020FEF7FEFC1820FEF7FBFC68
:102250000020FEF7F8FCA420FEF7F5FC0020FEF7B6
:10226000F2FC1820FEF7EFFC0020FEF7ECFC5020FB
:10227000FEF7E9FC0020FEF7E6FC0C20FEF7E3FC8D
:102280000020FEF7E0FC1720FEF7DDFC0020FEF743
:10229000DAFC9520FEF7D7FC0020FEF7D4FCF320F3
:1022A000FEF7D1FC0020FEF7CEFCE620FEF7CBFCCB
:1022B0000020FEF7C8FCC520FEF7BCFC3220FEF76C
:1022C000C2FC0020FEF7BFFC4420FEF7BCFC00204F
:1022D000FEF7B9FC6520FEF7B6FC0020FEF7B3FC64
:1022E0007620FEF7B0FC0020FEF7ADFC8820FEF75C
:1022F000AAFC0020FEF7A7FCC620FEF79BFC2020CE
:10230000FEF7A1FC0020FEF79EFC1720FEF79BFCC9
:102310000020FEF798FC0120FEF795FC0020FEF758
:1023200092FCC720FEF786FC0020FEF78CFC002004
:10233000FEF789FC0020FEF786FC0020FEF783FCF8
:10234000C820FEF777FC0020FEF77DFC0020FEF79A
:102350007AFC0020FEF777FC0020FEF774FCC92011
:10236000FEF768FC0020FEF76EFC0020FEF76BFC19
:102370000020FEF768FC0020FEF765FC0020FEF759
:1023800062FC0020FEF75FFC0020FEF75CFC0020F2
:10239000FEF759FC0020FEF756FC0020FEF753FC28
:1023A0000020FEF750FC0020FEF74DFC0020FEF759
:1023B0004AFC0020FEF747FC0020FEF744FC00200A
:1023C000FEF741FCE020FEF735FC1620FEF73BFC53
:1023D0000020FEF738FC1C20FEF735FC0020FEF73D
:1023E00032FC2120FEF72FFC0020FEF72CFC3620CB
:1023F000FEF729FC0020FEF726FC4620FEF723FC12
:102400000020FEF720FC5220FEF71DFC0020FEF706
:102410001AFC6420FEF717FC0020FEF714FC7A205B
:10242000FEF711FC0020FEF70EFC8B20FEF70BFCE4
:102430000020FEF708FC9920FEF705FC0020FEF7BF
:1024400002FCA820FEF7FFFB0020FEF7FCFBB920F2
:10245000FEF7F9FB0020FEF7F6FBC420FEF7F3FBC6
:102460000020FEF7F0FBCA20FEF7EDFB0020FEF790
:10247000EAFBD220FEF7E7FB0020FEF7E4FBD920C1
:10248000FEF7E1FB0020FEF7DEFBE020FEF7DBFBC2
:102490000020FEF7D8FBF320FEF7D5FB0020FEF767
:1024A000D2FBE120FEF7C6FB1620FEF7CCFB002096
:1024B000FEF7C9FB1C20FEF7C6FB0020FEF7C3FB9E
:1024C0002220FEF7C0FB0020FEF7BDFB3620FEF702
:1024D000BAFB0020FEF7B7FB4520FEF7B4FB002057
:1024E000FEF7B1FB5220FEF7AEFB0020FEF7ABFB80
:1024F0006420FEF7A8FB0020FEF7A5FB7A20FEF77C
:10250000A2FB0020FEF79FFB8B20FEF79CFB002028
:10251000FEF799FB9920FEF796FB0020FEF793FB50
:10252000A820FEF790FB0020FEF78DFBB920FEF7F8
:102530008AFB0020FEF787FBC420FEF784FB002007
:10254000FEF781FBCA20FEF77EFB0020FEF77BFB37
:10255000D220FEF778FB0020FEF775FBD820FEF7AF
:1025600072FB0020FEF76FFBE020FEF76CFB002003
:10257000FEF769FBF320FEF766FB0020FEF763FB26
:10258000E220FEF757FB0520FEF75DFB0020FEF77B
:102590005AFB0B20FEF757FB0020FEF754FB1B20D5
:1025A000FEF751FB0020FEF74EFB3420FEF74BFBFD
:1025B0000020FEF748FB4420FEF745FB0020FEF715
:1025C00042FB4F20FEF73FFB0020FEF73CFB612063
:1025D000FEF739FB0020FEF736FB7920FEF733FBD0
:1025E0000020FEF730FB8820FEF72DFB0020FEF7D1
:1025F0002AFB9720FEF727FB0020FEF724FBA620EE
:10260000FEF721FB0020FEF71EFBB720FEF71BFBA9
:102610000020FEF718FBC220FEF715FB0020FEF796
:1026200012FBC720FEF70FFB0020FEF70CFBD120AA
:10263000FEF709FB0020FEF706FBD620FEF703FBA2
:102640000020FEF700FBDD20FEF7FDFA0020FEF77C
:10265000FAFAF320FEF7F7FA0020FEF7F4FAE32087
:10266000FEF7E8FA0520FEF7EEFA0020FEF7EBFA97
:102670000A20FEF7E8FA0020FEF7E5FA1C20FEF734
:10268000E2FA0020FEF7DFFA3320FEF7DCFA002042
:10269000FEF7D9FA4420FEF7D6FA0020FEF7D3FA67
:1026A0005020FEF7D0FA0020FEF7CDFA6220FEF7A8
:1026B000CAFA0020FEF7C7FA7820FEF7C4FA002015
:1026C000FEF7C1FA8820FEF7BEFA0020FEF7BBFA3B
:1026D0009720FEF7B8FA0020FEF7B5FAA620FEF71D
:1026E000B2FA0020FEF7AFFAB720FEF7ACFA0020EE
:1026F000FEF7A9FAC220FEF7A6FA0020FEF7A3FA19
:10270000C720FEF7A0FA0020FEF79DFAD120FEF7C1
:102710009AFA0020FEF797FAD520FEF794FA0020E7
:10272000FEF791FADD20FEF78EFA0020FEF78BFA15
:10273000F320FEF788FA0020FEF785FAE420FEF782
:1027400079FA0120FEF77FFA0020FEF77CFA0120DB
:10275000FEF779FA0020FEF776FA0220FEF773FA08
:102760000020FEF770FA2A20FEF76DFA0020FEF72F
:102770006AFA3C20FEF767FA0020FEF764FA4B2065
:10278000FEF761FA0020FEF75EFA5D20FEF75BFAC5
:102790000020FEF758FA7420FEF755FA0020FEF7E5
:1027A00052FA8420FEF74FFA0020FEF74CFA9320ED
:1027B000FEF749FA0020FEF746FAA220FEF743FA98
:1027C0000020FEF740FAB320FEF73DFA0020FEF7A6
:1027D0003AFABE20FEF737FA0020FEF734FAC4209A
:1027E000FEF731FA0020FEF72EFACD20FEF72BFA85
:1027F0000020FEF728FAD320FEF725FA0020FEF786
:1028000022FADD20FEF71FFA0020FEF71CFAF32063
:10281000FEF719FA0020FEF716FAE520FEF70AFA8D
:102820000020FEF710FA0020FEF70DFA0020FEF758
:102830000AFA0020FEF707FA0220FEF704FA002049
:10284000FEF701FA2920FEF7FEF90020FEF7FBF95A
:102850003C20FEF7F8F90020FEF7F5F94B20FEF7D3
:10286000F2F90020FEF7EFF95D20FEF7ECF9002009
:10287000FEF7E9F97420FEF7E6F90020FEF7E3F928
:102880008420FEF7E0F90020FEF7DDF99320FEF743
:10289000DAF90020FEF7D7F9A220FEF7D4F90020DC
:1028A000FEF7D1F9B320FEF7CEF90020FEF7CBF901
:1028B000BE20FEF7C8F90020FEF7C5F9C420FEF7D8
:1028C000C2F90020FEF7BFF9CD20FEF7BCF90020C9
:1028D000FEF7B9F9D320FEF7B6F90020FEF7B3F9F9
:1028E000DC20FEF7B0F90020FEF7ADF9F320FEF78B
:1028F000AAF90020FEF7A7F9E620FEF79BF91120C0
:10290000FEF7A1F90020FEF79EF93420FEF79BF9AF
:102910000020FEF798F95620FEF795F90020FEF703
:1029200092F97620FEF78FF90020FEF78CF97720D8
:10293000FEF789F90020FEF786F96620FEF783F995
:102940000020FEF780F98820FEF77DF90020FEF7D1
:102950007AF99920FEF777F90020FEF774F9BB2089
:10296000FEF771F90020FEF76EF99920FEF76BF97A
:102970000020FEF768F96620FEF765F90020FEF7F3
:1029800062F95520FEF75FF90020FEF75CF955204B
:10299000FEF759F90020FEF756F94520FEF753F9E6
:1029A0000020FEF750F94320FEF74DF90020FEF716
:1029B0004AF94420FEF747F90020FEF744F9E720E2
:1029C000FEF738F93220FEF73EF90020FEF73BF91A
:1029D0005520FEF738F90020FEF735F97620FEF78E
:1029E00032F90020FEF72FF96620FEF72CF90020BF
:1029F000FEF729F96720FEF726F90020FEF723F9F4
:102A00006720FEF720F90020FEF71DF98720FEF76A
:102A10001AF90020FEF717F99920FEF714F90020A3
:102A2000FEF711F9BB20FEF70EF90020FEF70BF9B7
:102A30009920FEF708F90020FEF705F97720FEF748
:102A400002F90020FEF7FFF84420FEF7FCF8002012
:102A5000FEF7F9F85620FEF7F6F80020FEF7F3F837
:102A60002320FEF7F0F80020FEF7EDF83320FEF704
:102A7000EAF80020FEF7E7F84520FEF7E4F800202A
:102A8000FEF7E1F8E820FEF7D5F80020FEF7DBF8C6
:102A90000020FEF7D8F89920FEF7D5F80020FEF7C1
:102AA000D2F88720FEF7CFF80020FEF7CCF8882078
:102AB000FEF7C9F80020FEF7C6F87720FEF7C3F846
:102AC0000020FEF7C0F86620FEF7BDF80020FEF7F4
:102AD000BAF88820FEF7B7F80020FEF7B4F8AA206D
:102AE000FEF7B1F80020FEF7AEF8BB20FEF7ABF81A
:102AF0000020FEF7A8F89920FEF7A5F80020FEF7C1
:102B0000A2F86620FEF79FF80020FEF79CF85520FB
:102B1000FEF799F80020FEF796F85520FEF793F897
:102B20000020FEF790F84420FEF78DF80020FEF715
:102B30008AF84420FEF787F80020FEF784F8552035
:102B4000FEF781F80020FEF77EF8E920FEF772F824
:102B5000AA20FEF778F80020FEF775F80020FEF7AF
:102B600072F80020FEF76FF80020FEF763F8AA2045
:102B7000FEF769F8CF20FEF75DF80020FEF763F856
:102B80000020FEF760F80020FEF75DF80020FEF759
:102B90005AF80020FEF757F80020FEF754F80020FE
:102BA000FEF751F80020FEF74EF80020FEF74BF834
:102BB0000020FEF748F80020FEF745F80020FEF759
:102BC00042F80020FEF73FF80020FEF73CF8002016
:102BD000FEF739F80020FEF736F80020FEF733F84C
:102BE000F020FEF727F80020FEF72DF85020FEF722
:102BF0002AF80020FEF727F80020FEF724F800202E
:102C0000FEF721F8F320FEF715F80020FEF71BF879
:102C1000F920FEF70FF80620FEF715F81020FEF752
:102C200012F82920FEF70FF80020FEF70CF83A20E2
:102C3000FEF700F85520FEF706F81120FDF7FAFF21
:102C4000642009F04AFE2920FDF7F4FF3520FDF746
:102C5000F1FF0020FDF7F7FF5120FDF7EBFFFF200C
:102C6000FDF7F1FF5320FDF7E5FF2C20FDF7EBFF0B
:102C70005520FDF7DFFF8220FDF7E5FF2C20FDF753
:102C8000D9FF01F048B8FE48808845F210518842CB
:102C90007ED155214FF47040FDF7E7FFAA214FF296
:102CA0000100FDF7E2FF52214FF20200FDF7DDFFC8
:102CB00008214FF20300FDF7D8FF01214FF2040075
:102CC000FDF7D3FF0D214FF43040FDF7CEFF0D216E
:102CD0004BF20100FDF7C9FF0D214BF20200FDF799
:102CE000C4FF34214FF43640FDF7BFFF34214BF2CF
:102CF0000160FDF7BAFF34214BF20260FDF7B5FF2A
:102D00000D214FF43140FDF7B0FF0D214BF20110C2
:102D1000FDF7ABFF0D214BF20210FDF7A6FF3421AA
:102D20004FF43740FDF7A1FF34214BF20170FDF75E
:102D30009CFF34214BF20270FDF797FF00214FF406
:102D40003240FDF792FF00214BF20120FDF78DFF8D
:102D500000214BF20220FDF788FF24214FF4384078
:102D6000FDF783FF24214BF60100FDF77EFF2421B0
:102D70004BF60200FDF779FF01214FF43F40FDF7CC
:102D800074FF0F214FF43340FDF76FFF0F2100E078
:102D9000FEE34BF20130FDF768FF0F214BF20230EA
:102DA000FDF763FF34214FF43940FDF75EFF342116
:102DB0004BF60110FDF759FF34214BF60210FDF7D9
:102DC00054FF08214FF43540FDF74FFF08214BF227
:102DD0000150FDF74AFF08214BF20250FDF745FF75
:102DE00003214FF44240FDF740FF24214FF43A40C5
:102DF000FDF73BFF24214BF60120FDF736FF242190
:102E00004BF60220FDF731FF00214FF43C40FDF767
:102E10002CFF78214BF60140FDF727FF00214BF6F0
:102E20000240FDF722FF00214FF43D40FDF71DFF5A
:102E300078214BF60150FDF718FF00214BF60250A8
:102E4000FDF713FF00214FF43E40FDF70EFF642114
:102E50004BF60160FDF709FF00214FF45140FDF7EB
:102E600004FF33214DF20110FDF7FFFE00214DF26A
:102E70000210FDF7FAFE34214DF20310FDF7F5FEC6
:102E800000214DF20410FDF7F0FE3A214DF205103D
:102E9000FDF7EBFE00214DF20610FDF7E6FE4A219C
:102EA0004DF20710FDF7E1FE00214DF20810FDF78D
:102EB000DCFE5C214DF20910FDF7D7FE00214DF23A
:102EC0000A10FDF7D2FE81214DF20B10FDF7CDFE69
:102ED00000214DF20C10FDF7C8FEA6214DF20D1099
:102EE000FDF7C3FE00214DF20E10FDF7BEFEE521F9
:102EF0004DF20F10FDF7B9FE01214DF21010FDF754
:102F0000B4FE13214DF21110FDF7AFFE01214DF279
:102F10001210FDF7AAFE54214DF21310FDF7A5FE85
:102F200001214DF21410FDF7A0FE82214DF2151083
:102F3000FDF79BFE01214DF21610FDF796FECA210A
:102F40004DF21710FDF791FE02214DF21810FDF71A
:102F50008CFE00214DF21910FDF787FE02214DF283
:102F60001A10FDF782FE01214DF21B10FDF77DFEC8
:102F700002214DF21C10FDF778FE34214DF21D1098
:102F8000FDF773FE02214DF21E10FDF76EFE672164
:102F90004DF21F10FDF769FE02214DF22010FDF7E2
:102FA00064FE84214DF22110FDF75FFE02214DF2F7
:102FB0002210FDF75AFEA4214DF22310FDF755FE15
:102FC00002214DF22410FDF750FEB7214DF22510DD
:102FD000FDF74BFE02214DF22610FDF746FECF21F4
:102FE0004DF22710FDF741FE02214DF22810FDF7AA
:102FF0003CFEDE214DF22910FDF737FE02214DF295
:103000002A10FDF732FEF2214DF22B10FDF72DFEB6
:1030100002214DF22C10FDF728FEFE214DF22D105D
:10302000FDF723FE03214DF22E10FDF71EFE1021A9
:103030004DF22F10FDF719FE03214DF23010FDF770
:1030400014FE33214DF23110FDF70FFE03214DF236
:103050003210FDF70AFE6D214DF23310FDF705FE2B
:1030600000214FF45240FDF700FE33214DF20120C4
:10307000FDF7FBFD00214DF20220FDF7F6FD01E01A
:10308000404F002034214DF20320FDF7EEFD0021DA
:103090004DF20420FDF7E9FD3A214DF20520FDF740
:1030A000E4FD00214DF20620FDF7DFFD4A214DF23F
:1030B0000720FDF7DAFD00214DF20820FDF7D5FDD0
:1030C0005C214DF20920FDF7D0FD00214DF20A20D0
:1030D000FDF7CBFD81214DF20B20FDF7C6FD002150
:1030E0004DF20C20FDF7C1FDA6214DF20D20FDF79C
:1030F000BCFD00214DF20E20FDF7B7FDE5214DF29C
:103100000F20FDF7B2FD01214DF21020FDF7ADFDBE
:1031100013214DF21120FDF7A8FD01214DF21220DF
:10312000FDF7A3FD54214DF21320FDF79EFD012173
:103130004DF21420FDF799FD82214DF21520FDF787
:1031400094FD01214DF21620FDF78FFDCA214DF2AD
:103150001720FDF78AFD02214DF21820FDF785FDAD
:1031600000214DF21920FDF780FD02214DF21A20B9
:10317000FDF77BFD01214DF21B20FDF776FD0221BD
:103180004DF21C20FDF771FD34214DF21D20FDF79D
:103190006CFD02214DF21E20FDF767FD67214DF207
:1031A0001F20FDF762FD02214DF22020FDF75DFD9D
:1031B00084214DF22120FDF758FD02214DF22220FD
:1031C000FDF753FDA4214DF22320FDF74EFD022112
:1031D0004DF22420FDF749FDB7214DF22520FDF7E2
:1031E00044FD02214DF22620FDF73FFDCF214DF297
:1031F0002720FDF73AFD02214DF22820FDF735FD8D
:10320000DE214DF22920FDF730FD02214DF22A206A
:10321000FDF72BFDF2214DF22B20FDF726FD0221BB
:103220004DF22C20FDF721FDFE214DF22D20FDF762
:103230001CFD03214DF22E20FDF717FD10214DF24C
:103240002F20FDF712FD03214DF23020FDF70DFD7B
:1032500033214DF23120FDF708FD03214DF23220DC
:10326000FDF703FD6D214DF23320FDF7FEFC00213B
:103270004FF45340FDF7F9FC33214DF20130FDF7D7
:10328000F4FC00214DF20230FDF7EFFC34214DF249
:103290000330FDF7EAFC00214DF20430FDF7E5FCB8
:1032A0003A214DF20530FDF7E0FC00214DF20630E9
:1032B000FDF7DBFC4A214DF20730FDF7D6FC00217B
:1032C0004DF20830FDF7D1FC5C214DF20930FDF7DD
:1032D000CCFC00214DF20A30FDF7C7FC81214DF2F4
:1032E0000B30FDF7C2FC00214DF20C30FDF7BDFCA8
:1032F000A6214DF20D30FDF7B8FC00214DF20E3045
:10330000FDF7B3FCE5214DF20F30FDF7AEFC0121D6
:103310004DF21030FDF7A9FC13214DF21130FDF7ED
:10332000A4FC01214DF21230FDF79FFC54214DF217
:103330001330FDF79AFC01214DF21430FDF795FC96
:1033400082214DF21530FDF790FC01214DF216302F
:10335000FDF78BFCCA214DF21730FDF786FC0221E8
:103360004DF21830FDF781FC00214DF21930FDF7C8
:103370007CFC02214DF21A30FDF777FC01214DF261
:103380001B30FDF772FC02214DF21C30FDF76DFC85
:1033900034214DF21D30FDF768FC02214DF21E3044
:1033A000FDF763FC67214DF21F30FDF75EFC022143
:1033B0004DF22030FDF759FC84214DF22130FDF70C
:1033C00054FC02214DF22230FDF74FFCA4214DF2B6
:1033D0002330FDF74AFC02214DF22430FDF745FC75
:1033E000B7214DF22530FDF740FC02214DF2263089
:1033F000FDF73BFCCF214DF22730FDF736FC0221D3
:103400004DF22830FDF731FCDE214DF22930FDF779
:103410002CFC02214DF22A30FDF727FCF2214DF25F
:103420002B30FDF722FC02214DF22C30FDF71DFC64
:10343000FE214DF22D30FDF718FC03214DF22E3008
:10344000FDF713FC10214DF22F30FDF70EFC032188
:103450004DF23030FDF709FC33214DF23130FDF7EC
:1034600004FC03214DF23230FDF7FFFB6D214DF2DC
:103470003330FDF7FAFB00214FF45440FDF7F5FB24
:1034800033214DF20140FDF7F0FB00214DF20240E7
:10349000FDF7EBFB34214DF20340FDF7E6FB002185
:1034A0004DF20440FDF7E1FB3A214DF20540FDF7F6
:1034B000DCFB00214DF20640FDF7D7FB4A214DF21F
:1034C0000740FDF7D2FB00214DF20840FDF7CDFB90
:1034D0005C214DF20940FDF7C8FB00214DF20A4086
:1034E000FDF7C3FB81214DF20B40FDF7BEFB002130
:1034F0004DF20C40FDF7B9FBA6214DF20D40FDF752
:10350000B4FB00214DF20E40FDF7AFFBE5214DF27B
:103510000F40FDF7AAFB01214DF21040FDF7A5FB7E
:1035200013214DF21140FDF7A0FB01214DF2124095
:10353000FDF79BFB54214DF21340FDF796FB012153
:103540004DF21440FDF791FB82214DF21540FDF73D
:103550008CFB01214DF21640FDF787FBCA214DF28D
:103560001740FDF782FB02214DF21840FDF77DFB6D
:1035700000214DF21940FDF778FB02214DF21A406F
:10358000FDF773FB01214DF21B40FDF76EFB00E0E0
:1035900003E302214DF21C40FDF767FB34214DF29D
:1035A0001D40FDF762FB02214DF21E40FDF75DFB61
:1035B00067214DF21F40FDF758FB02214DF22040DC
:1035C000FDF753FB84214DF22140FDF74EFB022114
:1035D0004DF22240FDF749FBA4214DF22340FDF7B7
:1035E00044FB02214DF22440FDF73FFBB7214DF291
:1035F0002540FDF73AFB02214DF22640FDF735FB51
:10360000CF214DF22740FDF730FB02214DF228403B
:10361000FDF72BFBDE214DF22940FDF726FB0221B1
:103620004DF22A40FDF721FBF2214DF22B40FDF730
:103630001CFB02214DF22C40FDF717FBFE214DF241
:103640002D40FDF712FB03214DF22E40FDF70DFB3F
:1036500010214DF22F40FDF708FB03214DF23040C1
:10366000FDF703FB33214DF23140FDF7FEFA032154
:103670004DF23240FDF7F9FA6D214DF23340FDF77E
:10368000F4FA00214FF45540FDF7EFFA33214DF2E3
:103690000150FDF7EAFA00214DF20250FDF7E5FA7C
:1036A00034214DF20350FDF7E0FA00214DF20450B1
:1036B000FDF7DBFA3A214DF20550FDF7D6FA00216D
:1036C0004DF20650FDF7D1FA4A214DF20750FDF7B1
:1036D000CCFA00214DF20850FDF7C7FA5C214DF2FB
:1036E0000950FDF7C2FA00214DF20A50FDF7BDFA6C
:1036F00081214DF20B50FDF7B8FA00214DF20C502C
:10370000FDF7B3FAA6214DF20D50FDF7AEFA0021F8
:103710004DF20E50FDF7A9FAE5214DF20F50FDF7DD
:10372000A4FA01214DF21050FDF79FFA13214DF23A
:103730001150FDF79AFA01214DF21250FDF795FA5A
:1037400054214DF21350FDF790FA01214DF214501F
:10375000FDF78BFA82214DF21550FDF786FA012113
:103760004DF21650FDF781FACA214DF21750FDF7C0
:103770007CFA02214DF21850FDF777FA00214DF244
:103780001950FDF772FA02214DF21A50FDF76DFA49
:1037900001214DF21B50FDF768FA02214DF21C5039
:1037A000FDF763FA34214DF21D50FDF75EFA022158
:1037B0004DF21E50FDF759FA67214DF21F50FDF7EB
:1037C00054FA02214DF22050FDF74FFA84214DF2B8
:1037D0002150FDF74AFA02214DF22250FDF745FA39
:1037E000A4214DF22350FDF740FA02214DF224505E
:1037F000FDF73BFAB7214DF22550FDF736FA0221CD
:103800004DF22650FDF731FACF214DF22750FDF74A
:103810002CFA02214DF22850FDF727FADE214DF255
:103820002950FDF722FA02214DF22A50FDF71DFA28
:10383000F2214DF22B50FDF718FA02214DF22C50D7
:10384000FDF713FAFE214DF22D50FDF70EFA03217C
:103850004DF22E50FDF709FA10214DF22F50FDF7D1
:1038600004FA03214DF23050FDF7FFF933214DF2F8
:103870003150FDF7FAF903214DF23250FDF7F5F919
:103880006D214DF23350FDF7F0F900214FF4564011
:10389000FDF7EBF933214DF20160FDF7E6F9002168
:1038A0004DF20260FDF7E1F934214DF20360FDF7BE
:1038B000DCF900214DF20460FDF7D7F93A214DF211
:1038C0000560FDF7D2F900214DF20660FDF7CDF954
:1038D0004A214DF20760FDF7C8F900214DF208605A
:1038E000FDF7C3F95C214DF20960FDF7BEF9002137
:1038F0004DF20A60FDF7B9F981214DF20B60FDF739
:10390000B4F900214DF20C60FDF7AFF9A6214DF29C
:103910000D60FDF7AAF900214DF20E60FDF7A5F943
:10392000E5214DF20F60FDF7A0F901214DF2106085
:10393000FDF79BF913214DF21160FDF796F9012176
:103940004DF21260FDF791F954214DF21360FDF72D
:103950008CF901214DF21460FDF787F982214DF2B7
:103960001560FDF782F901214DF21660FDF77DF932
:10397000CA214DF21760FDF778F902214DF2186067
:10398000FDF773F900214DF21960FDF76EF9022180
:103990004DF21A60FDF769F901214DF21B60FDF748
:1039A00064F902214DF21C60FDF75FF934214DF2FC
:1039B0001D60FDF75AF902214DF21E60FDF755F921
:1039C00067214DF21F60FDF750F902214DF2206092
:1039D000FDF74BF984214DF22160FDF746F90221F4
:1039E0004DF22260FDF741F9A4214DF22360FDF76D
:1039F0003CF902214DF22460FDF737F9B7214DF271
:103A00002560FDF732F902214DF22660FDF72DF910
:103A1000CF214DF22760FDF728F902214DF22860F1
:103A2000FDF723F9DE214DF22960FDF71EF9022191
:103A30004DF22A60FDF719F9F2214DF22B60FDF7E6
:103A400014F902214DF22C60FDF70FF9FE214DF221
:103A50002D60FDF70AF903214DF22E60FDF705F9FF
:103A600010214DF22F60FDF700F903214DF2306077
:103A7000FDF7FBF833214DF23160FDF7F6F8032135
:103A80004DF23260FDF7F1F86D214DF23360FDF734
:103A9000ECF855214FF47040FDF7E7F8AA214FF2FA
:103AA0000100FDF7E2F852214FF20200FDF7DDF8C8
:103AB00008214FF20300FDF7D8F800214FF204006F
:103AC000FDF7D3F8CC214FF43140FDF7CEF80021BB
:103AD0004BF20110FDF7C9F805214FF43640FDF710
:103AE000C4F870214FF43740FDF7BFF870214BF256
:103AF0000170FDF7BAF801214FF43840FDF7B5F831
:103B000003214BF60100FDF7B0F803214BF602004C
:103B1000FDF7ABF803214BF60300FDF7A6F80221F1
:103B20004FF43C40FDF7A1F800214BF60140FDF7B2
:103B30009CF800214BF60240FDF797F8D0214FF496
:103B40004940FDF792F802214CF60110FDF78DF87F
:103B500050214CF60210FDF788F850214CF6031066
:103B6000FDF783F850214CF60410FDF77EF8002194
:103B70004FF45450FDF779F855214FF46850FDF794
:103B800074F84FF48850FDF755F8782008F07BFE64
:103B90004FF42450FDF74EF8BDE0FE48808841F612
:103BA00063118842F8D1E220FDF744F81D20FDF7AB
:103BB0004AF80220FDF747F80420FDF744F8642096
:103BC00008F061FEE020FDF735F80120FDF73BF835
:103BD0000A2008F082FEE020FDF72CF80320FDF714
:103BE00032F80C2008F079FE0120FDF723F80A20B6
:103BF00008F073FEE620FDF71DF82F20FDF723F8EF
:103C0000FF20FDF720F8FF20FDF71DF8B020FDF79D
:103C100011F82020FDF717F80020FDF714F8032015
:103C2000FDF711F840F21F30FDF70DF80120FDF708
:103C30000AF840F2DF10FDF706F80020FDF703F860
:103C4000B420FCF7F7FF0420FCF7FDFF40F21F4013
:103C5000FCF7F9FF0020FCF7F6FF2E20FCF7F3FF3E
:103C60000020FCF7F0FF0020FCF7EDFF0020FCF740
:103C7000EAFF0020FCF7E7FFB620FCF7DBFF02209D
:103C8000FCF7E1FF4FF40370FCF7DDFF0020FCF7C9
:103C9000DAFF1720FCF7D7FF1520FCF7D4FF002030
:103CA000FCF7D1FF0020FCF7CEFFF020FCF7C2FFAD
:103CB0000320FCF7C8FF2920FCF7BCFFD020FCF74D
:103CC000B9FF0020FCF7BFFFBE20FCF7B3FF0520C3
:103CD000FCF7B9FFFE20FCF7B6FF0120FCF7B3FFAD
:103CE0000020FCF7B0FF0020FCF7ADFF0020FCF740
:103CF000AAFFB820FCF79EFF0320FCF7A4FF0120D9
:103D0000FCF7A1FFBA20FCF795FF0120FCF79BFF11
:103D10006420FDF76AFA0120FDF793FA01209E491D
:103D200008604FF6FF70FDF7E1FB21B000BD2DE903
:103D3000F04F05460E4617469846DDF824A04FF092
:103D4000000B781B401C1FFA80FB344614E0214610
:103D50002846FCF7B9FFFCF79AFF4FF0000907E08F
:103D60004FF0D840A0F880A009F101001FFA80F9B7
:103D7000D945F5DB601C84B24445E8DDBDE8F08F31
:103D80002DE9F84F07460D4690469946DDF828B0D4
:103D9000A8EB0700401C1FFA80FAA9EB0500401CA5
:103DA00080B20090002414E0281981B23846FCF754
:103DB0008BFFFCF76CFF002607E004FB0A603BF872
:103DC000100076490880701C86B25645F5DB601CF1
:103DD00084B200988442E7DBBDE8F88F2DE9FF4FFD
:103DE00084B081468A460020039002900698A0EB9A
:103DF00009050798A0EB0A06CDF80490CDF800A0BD
:103E0000002D01DD012705E00DB9002702E04FF08C
:103E1000FF376D42002E02DD4FF0010806E016B9B3
:103E20004FF0000802E04FF0FF387642B54201DD66
:103E30002C4600E034464FF0000B21E0009A91B28E
:103E4000019A90B2FDF74CF9039828440390029828
:103E5000304402900398A04205DD0398001B0390B4
:103E60000198384401900298A04205DD0298001B99
:103E700002900098404400900BF101001FFA80FB73
:103E8000601C8345DADD08B0BDE8F08FF0B504466C
:103E90000D4616461F462B46324629462046FFF75A
:103EA0009DFF3B46224629462046FFF797FF3B46AB
:103EB000324639462046FFF791FF3B4632462946B7
:103EC0003046FFF78BFFF0BD2DE9F04306460F4665
:103ED0009046002445460320A0EB48093CE07A1BAD
:103EE00091B2321990B2FDF7FBF83A1B91B27219F8
:103EF00090B2FDF7F5F83A1991B2721990B2FDF748
:103F0000EFF87A1991B2321990B2FDF7E9F87A19FF
:103F100091B2321B90B2FDF7E3F83A1991B2721BDD
:103F200090B2FDF7DDF87A1B91B2321B90B2FDF72B
:103F3000D7F83A1B91B2721B90B2FDF7D1F8641C0E
:103F4000B9F1000F03DAA000801D814404E0601B7A
:103F500080000A3081446D1EAC42C0DDBDE8F083B4
:103F60002DE9F84F80460E4617461C46B3462046BC
:103F7000E31704EB5373DB1021464FEAE47C04EBB8
:103F80005C7C4FEAEC0CA4EBCC0CBCF1000F0AD02B
:103F900006E00000404F0020BC8240428000006CE0
:103FA0004FF0010C01E04FF0000C6344224604EB9B
:103FB000D27C4FEA6C0C03FB0CF3DBB20093A7F14D
:103FC0002000C7B2002556E00C2C07D107EB4700B4
:103FD0009F4901EB800010F8059013E0102C05D1EB
:103FE0009C4800EB071010F805900BE0182C07D147
:103FF00007EBC700984901EB800010F8059001E03D
:10400000BDE8F88F4FF0000A2FE009F0800030B1D2
:104010009248028831464046FDF770F807E00A985A
:1040200028B98F48028831464046FDF767F84FEAC5
:1040300049604FEA1069701C86B28A484088B042D5
:1040400000DCDDE7A6EB0B00A0420AD15E4608F1DA
:1040500001001FFA80F883480088404500DCCFE764
:1040600006E00AF1010000F0FF0ABAF1080FCCDB0C
:1040700000BF681CC5B200988542A5DB00BFBFE742
:1040800010B50246012000E050430B00A1F10104ED
:10409000E1B2F9D110BD2DE9FF4F81B0074691463D
:1040A0001E460E9D4FF0000A002439E0301B401ED2
:1040B000C1B20A20FFF7E4FFB9FBF0F00A21B0FB20
:1040C000F1F201FB1208BAF1000F16D1701EA042E6
:1040D00013DDB8F1000F0ED10020AB4605EBDB710C
:1040E000491001FB0471009088B22B4620220299EE
:1040F000FFF736FF12E04FF0010A0020AB4605EB58
:10410000DB71491001FB0471009088B208F13001A5
:10411000CAB22B460299FFF723FF00BF601CC4B24E
:10412000B442C3DB05B0BDE8F08F2DE9FF4F82B08C
:10413000064692461F46DDE90F4800200190002503
:104140004DE0781B401EC1B20A20FFF799FFBAFB71
:10415000F0F00A21B0FBF1F201FB1209019850BB0B
:10416000781EA84227DDB9F1000F22D108F08000A7
:1041700078B108F00100A34604EBDB71491001FBA4
:104180000561009088B2234630220399FFF7E8FECC
:104190000EE008F00100A34604EBDB71491001FBBF
:1041A0000561009088B2234620220399FFF7D8FECC
:1041B00013E00120019008F00100A34604EBDB713D
:1041C000491001FB0561009088B209F13001CAB2C3
:1041D00023460399FFF7C4FE00BF681CC5B2BD4269
:1041E000AFDB06B0BDE8F08F2DE9F84704460D4679
:1041F00090469946DDE9096704F0FF0A08EB0400E0
:104200001FFA80F809EB05001FFA80F916E0444513
:1042100002DB5446A81985B24D4500DB14E00020AE
:1042200000903A78334629462046FFF799FE3046FB
:1042300006EBD07104EB61018CB27F1C38787E28CC
:1042400002DC38782028E2DA00BFBDE8F8870000F9
:1042500098E002080CE50208FCEA02081A000020B7
:104260001C000020404F00201CB50121022007F057
:1042700037F84FF44070009001208DF804000320BF
:104280008DF8050000208DF8060001208DF807004C
:104290006946894806F086FD0120884908608849FA
:1042A000C1F8A4021CBD10B58348006820F440206A
:1042B000814908600846006840F4802008600120B9
:1042C0007E49091D08607E49C1F8A002042008F05B
:1042D000DAFA00207949091D0860042008F0D3FAB1
:1042E00000207749C1F8A00210BD10B572480068DF
:1042F00020F44020704908600846006840F480209F
:10430000086000206D4908606D49C1F8A4020420CE
:1043100008F0B9FA0120694908606949C1F8A402A6
:10432000042008F0B0FA10BD10B5002462480068FF
:1043300020F44020604908600846006808600120B9
:104340005E49091D086008F09EFA01205C49C1F829
:10435000A00208F098FA07E0601CC4B2FA2C03DD52
:10436000FFF7C3FF012010BD54487C3800680028C7
:10437000F2D15249086000BFF5E710B500204F495F
:1043800008604D48006820F440204B49086008460A
:10439000006840F48020086000204949C1F8A40268
:1043A000022008F070FA012044490860022008F059
:1043B0006AFA00204249C1F8A00210BD10B50020E1
:1043C0003E4908603C48006820F440203A490860B3
:1043D0000846006840F48020086001203849C1F890
:1043E000A402022008F04FFA01203449086002209C
:1043F00008F049FA00203249C1F8A00210BD70B59A
:1044000004462D48006820F440202B4908600846E7
:10441000006840F4802008600020284908600025DA
:1044200017E0E0092549091D08606006040E022016
:1044300008F029FA01202249C1F8A002022008F060
:1044400022FA00201D490860022008F01CFA681CAE
:10445000C5B2082DE5DB70BD70B5054600241648D1
:10446000006820F44020144908600846006808608D
:10447000002616E0002011490860022008F003FA27
:1044800001200F49C1F8A0026006040E0B487C38D9
:10449000006808B1601CC4B2012008F0F4F9701C77
:1044A000C6B2082EE6DB15B9FFF788FF01E0FFF77B
:1044B00064FF204670BD000000040240A08240421C
:1044C0000080404200B599B01FF042FC642008F023
:1044D000DAF901217A2006F003FF0121084606F0EF
:1044E00037FF4FF40040179001208DF86000002046
:1044F0008DF8620002208DF8610001208DF86300C4
:1045000017A9AC4806F04EFC4FF633701790022006
:104510008DF8600000208DF8620003208DF86100A6
:1045200001208DF8630017A9A34806F03BFC4FF665
:104530008370179002208DF8600000208DF86200D3
:1045400003208DF8610001208DF8630017A99B48B6
:1045500006F028FC4FF23F00179002208DF8600013
:1045600000208DF8620003208DF8610001208DF895
:10457000630017A9924806F015FC40F23F401790DF
:1045800002208DF8600000208DF8620003208DF875
:10459000610001208DF8630017A98A4806F002FC2B
:1045A0000C220021844806F088FC0C22012182485C
:1045B00006F083FC0C2204217F4806F07EFC0C22CE
:1045C00005217D4806F079FC0C2208217A4806F086
:1045D00074FC0C220921784806F06FFC0C220A2199
:1045E000754806F06AFC0C220B21734806F065FC46
:1045F0000C221146704806F060FC0C220D216E481A
:1046000006F05BFC0C220E216B4806F056FC0C22D7
:104610000F21694806F051FC0C220021674806F082
:104620004CFC0C220121654806F047FC0C220721B6
:10463000624806F042FC0C220821604806F03DFC6E
:104640000C2209215D4806F038FC0C220A215B4847
:1046500006F033FC0C220B21584806F02EFC0C22ED
:104660001146564806F029FC0C220D21534806F04D
:1046700024FC0C220E21514806F01FFC0C220F21B5
:104680004E4806F01AFC0C2200214D4806F015FC9D
:104690000C2201214A4806F010FC0C220221484855
:1046A00006F00BFC0C220321454806F006FC0C2208
:1046B0000421434806F001FC0C220521404806F085
:1046C000FCFB0C2211463E4806F0F7FB0C220D21A4
:1046D0003B4806F0F2FB0C220E21394806F0EDFBB8
:1046E0000C220F21364806F0E8FB0C220021354849
:1046F00006F0E3FB0C220121324806F0DEFB0C221F
:104700000221304806F0D9FB0C2203212D4806F087
:10471000D4FB0C2204212B4806F0CFFB0C220521F0
:10472000284806F0CAFB0C220A21264806F0C5FBE1
:1047300002200190002002900420039000200490A9
:1047400005900690079004200890002009900A9098
:1047500010200B9000200C900E900D900F90109058
:104760004FF480501190002012901390149001A8E3
:104770001590169008A805F0C6FF0121042006F048
:104780004DF819B000BD10B506E004784FF0D043E5
:104790005C54491C401C521E002AF6D110BD06E094
:1047A0004FF0D0435B5C00F8013B491C521E002ACD
:1047B000F6D1704700040240000C02400010024095
:1047C000001402400018024010B5052008F05BF804
:1047D00010BD1CB50121222006F082FD01200090B1
:1047E0008DF8040003208DF8050000208DF80600E8
:1047F00001208DF807006946844806F0D3FA4FF48B
:10480000006000906946824806F0CCFA0120814998
:1048100008608149C1F8AC021CBD10B57C48006835
:1048200020F440007A4908600846006840F480009F
:1048300008600120794908607949C1F88002142094
:1048400008F021F8002075490860FFF7BDFF00203F
:104850007349C1F8800210BD10B56D48006820F49E
:1048600040006B4908600846006840F4800008601A
:10487000012068490860142008F005F80020664906
:10488000C1F8AC02FFF7A0FF01206449086010BD29
:1048900010B500245E48006820F440005C490860C0
:1048A00008460068086001205C4908605C49C1F85E
:1048B00080020AE0601CC4B2FA2C03DDFFF7CCFFD3
:1048C000012010BD012007F0DEFF54488038006849
:1048D0000028EFD14F49086000BFF2E710B5002073
:1048E0004C4908604A48006820F440004849086084
:1048F0000846006840F480000860FFF765FF00206C
:104900004549C1F8AC02FFF75FFF0120414908604B
:10491000FFF75AFF00204249C1F8800210BD10B5D0
:1049200000203C4908603A48006820F440003849BB
:1049300008600846006840F480000860FFF744FF04
:1049400001203549C1F8AC02FFF73EFF0120314993
:104950000860FFF739FF00203149C1F8800210BD1F
:1049600070B504462A48006820F4400028490860D1
:104970000846006840F4800008600020254908606F
:10498000FFF722FF002511E0E009244908606006D6
:10499000040E01202249C1F88002FFF715FF002014
:1049A0001C490860FFF710FF681CC5B2082DEBDB3F
:1049B00070BD70B5054600241548006820F440001D
:1049C00013490860084600680860002613E00020CC
:1049D000104908601E2007F056FF01201049C1F859
:1049E00080026006040E0D488038006808B1601C23
:1049F000C4B2701CC6B2082EE9DB15B9FFF78FFFF1
:104A000001E0FFF76BFF204670BD0000000402408C
:104A1000001402408082404200804242AC82424206
:104A20000080404210B5FFF71FFC10BD70B5044672
:104A30000026FFF738FC2546E11704EB1161091247
:104A4000A02202EB4101C8B2FFF7D9FCFFF76CFCD2
:104A5000E11704EB11610912A4EB0121C8B2FFF7C1
:104A6000CEFCFFF761FCFFF71EFCA120FFF7C7FC9F
:104A7000FFF75AFC0020FFF7EFFC0646FFF735FC76
:104A8000304670BD70B504460E46FFF70CFC254657
:104A9000E11704EB11610912A02202EB4101C8B237
:104AA000FFF7ADFCFFF740FCE11704EB11610912C1
:104AB000A4EB0121C8B2FFF7A2FCFFF735FC30469A
:104AC000FFF79DFCFFF730FCFFF70FFC0A2007F013
:104AD00004FF70BD2DE9F04105460E46174600243F
:104AE00009E0E20026FA02F2D1B22A1990B2FFF7E9
:104AF000C9FF601CC4B2BC42F3DBBDE8F0812DE904
:104B0000F04107460C460026002509E03602391917
:104B1000491B491E88B2FFF789FF0644681CC5B2CD
:104B2000A542F3DB3046BDE8F08110B5FF20FFF76A
:104B30007DFF0446552C01D1002010BD5521FF20DA
:104B4000FFF7A0FFFF20FFF771FF0446552C01D1AE
:104B50000020F2E70120F0E770B506460C46154646
:104B600008E03046721C96B2FFF760FF04F8010BB4
:104B7000681E85B2002DF4D170BD70B505460C4697
:104B8000164606E021782846FFF77CFF681C85B2B0
:104B9000641C3000A6F101018EB2F3D170BD00009B
:104BA0002DE9F04104460E4617464FF00008FFF786
:104BB00034FEB220FFF7D4FEFFF76AFE2012FFF7A3
:104BC000CFFEFFF765FEE0B2FFF7CAFEFFF760FE1B
:104BD00000250BE0705DFFF7C3FEFFF759FE80462E
:104BE000B8F1000F00D003E0681CC5B2BD42F1DB94
:104BF00000BFFFF731FE4046BDE8F0812DE9F041EE
:104C000005460F461646FFF708FEB220FFF7A8FE3E
:104C1000FFF73EFE2812FFF7A3FEFFF739FEE8B2CA
:104C2000FFF79EFEFFF734FEFFF7F7FDB320FFF717
:104C300097FEFFF72DFE00240BE0711EA14201D06C
:104C4000012100E000210846FFF7B3FE3855601C43
:104C5000C4B2B442F1DBFFF7FFFDBDE8F08138B527
:104C60000446002000900CB180200090012269468B
:104C70004FF45060FFF794FF38BD0EB5002002904E
:104C80000121062006F02CFB0220009000208DF868
:104C9000040001208DF807006946934806F082F869
:104CA0004FF40050009001208DF8040003208DF88F
:104CB000050000208DF8060069468C4806F072F861
:104CC000FFF787FD00208A490860642007F005FE91
:104CD00001208849C1F8B402642007F0FEFD0120DC
:104CE000FFF7BDFF012202A94FF45060FFF786FFD6
:104CF0009DF8081080A028F0D9FB9DF808008028B6
:104D000001D100200EBD0120FCE731B52DED068B51
:104D100082B0002400257B480078401C7949087047
:104D2000084600780A2190FBF1F201FB120018B14D
:104D3000744800780A287DDA012208A90020FFF7CC
:104D40005DFF9DF8200000F01F00002872D09DF844
:104D5000200000F01F0040F0C0006B4981F82000E7
:104D6000002486E0684890F820000121A140084016
:104D700000287CD0654931F81400042201A9FFF70E
:104D80003DFF614890F8340000F00100D0B39DF879
:104D900007109DF8062001EB022012F072FB41EC97
:104DA000190B9FED5B0B53EC102B12F089FA41ECC1
:104DB000180B12F0A3FB81B25348163020F81410E0
:104DC0009DF805109DF8042001EB022012F059FB1C
:104DD00041EC1A0B9FED500B53EC102B12F070FAB4
:104DE00041EC190B9FED4E0B53EC102B12F065FAB2
:104DF00041EC180B12F082FB81B243480C3020F8D2
:104E0000141034E0FFE79DF807109DF8062001EB31
:104E1000022012F036FB41EC190B9FED3D0B53ECD9
:104E2000102B12F04DFA41EC180B12F067FB81B217
:104E3000354800E02CE00C3020F814109DF80510E7
:104E40009DF8042001EB022012F01BFB41EC190B32
:104E50009FED310B53EC102B12F032FA41EC180B92
:104E600012F04CFB81B22848163020F81410601C58
:104E7000C4B2052CFFF676AF01252348808920B9FE
:104E80002148C08A08B90020089000201D490870F8
:104E90009DF8200000F01F00D0B91B4890F82000BA
:104EA00000F0800040B1184890F8200020F0800009
:104EB000154981F820000BE04FF6FF7012498881F8
:104EC000C882084690F8200000F0E00081F8200039
:104ED0000C480078F02802DD0A200A4908702846AC
:104EE00002B0BDEC068B38BD000402400008024051
:104EF000B4024142000041424354502049443A2503
:104F0000780D0A001E0000202400002058F8020836
:104F10007B14AE47E17AD43FD881734694F6D23FF2
:104F200000000000000089402DE9F04104460E46D3
:104F300017464FF00008FFF770FC2820FFF710FD20
:104F4000FFF7A6FC2012FFF70BFDFFF7A1FCE0B274
:104F5000FFF706FDFFF79CFC00250BE0705DFFF7F7
:104F6000FFFCFFF795FC8046B8F1000F00D003E08E
:104F7000681CC5B2BD42F1DB00BFFFF76DFC4046C7
:104F8000BDE8F08138B50546002400208DF800000A
:104F90008DF8015000BF09E09DF80000DA49095D75
:104FA0000844C0B28DF80000601CC4B2B82CF3D322
:104FB0009DF80000C043401CC0B28DF80000B8222C
:104FC000D14948F24700FFF7AFFF0222694648F295
:104FD000FF00FFF7A9FF002038BD2DE9F04105468D
:104FE0000F461646FFF719FC2820FFF7B9FCFFF71C
:104FF0004FFC2812FFF7B4FCFFF74AFCE8B2FFF7BA
:10500000AFFCFFF745FCFFF708FC2920FFF7A8FCE1
:10501000FFF73EFC00240BE0711EA14201D00121EC
:1050200000E000210846FFF7C4FC3855601CC4B2FC
:10503000B442F1DBFFF710FCBDE8F0811FB50121A0
:10504000062006F04DF90220009000208DF80400A3
:105050008DF8060003208DF8050001208DF807006B
:105060006946AA4805F09EFE4FF4005000900120CA
:105070008DF804006946A64805F094FEFFF7A9FBE9
:105080000020A44908600A2007F027FC0120A2495B
:10509000C1F8B4020A2007F020FC02200090002092
:1050A0008DF804008DF807006946984805F07AFEEF
:1050B000642007F012FC042202A948F24010FFF716
:1050C0008CFF00208DF80C0002A994A028F0EEF9C6
:1050D00095A102A812F01CF848BB02208DF8080028
:1050E000012202A948F24000FFF71EFF012202A997
:1050F00048F24700FFF771FF9DF80800602807DAC3
:105100009DF808108AA028F0D1F90120FFF73AFF96
:105110000A2007F0E2FB00208DF80800012202A916
:1051200048F24000FFF700FF002004B010BD00204F
:10513000FBE771B583B00024002682480078401C4C
:1051400080490870084600780A2190FBF1F201FBC3
:10515000120018B17B4800780A287DDA012203A9E1
:1051600048F24E10FFF739FF00200190012201A9FB
:1051700048F24E10FFF7D8FE9DF80C0000F00F002B
:10518000002869D09DF80C0000F00F000628E4DA32
:105190009DF80C0000F00F01FF208840C0B2019084
:1051A000694890F820509DF80400C043C0B240F018
:1051B000C000654981F82000084681898182C18A42
:1051C000C183002444E0604890F820000121A14000
:1051D000084020B35D4931F81400042202A9FFF70A
:1051E000FCFE594890F8340000F00100C0B19DF871
:1051F00008009DF8091000EB012081B252481630DA
:1052000020F814109DF80A009DF80B1000EB012007
:10521000C0F5487081B24C480C3020F8141015E0ED
:105220009DF808009DF8091000EB012081B2464866
:105230000C3020F814109DF80A009DF80B1000EBBC
:10524000012081B24048163020F81410601CC4B20E
:10525000052CB8DB012600E02CE03B4880893C4966
:105260000988884205DC3848C08A3949498888421B
:105270001DDD9DF80C0000F00F0001280ADD32480A
:10528000C089314988810846008BC88200202D4999
:1052900008700FE02C48808A2B4988810846C08B13
:1052A000C88280200390084680F8205002E0002049
:1052B000244908709DF80C0000F08F00802819D157
:1052C000214890F8200000F0800038B11E4890F886
:1052D000200020F080001C4981F820004FF6FF706C
:1052E00019498881C882084690F8200000F0E00043
:1052F00081F8200013480078F02802DD0A201149C7
:105300000870304604B070BD62F802080004024024
:1053100000080240B4024142000041424354502080
:1053200049443A25730D0A00393134370000000032
:1053300044656661756C74205665723A25640D0A81
:10534000000000001F000020240000201AF90208BD
:10535000404F00202DE9F04105460E4617464FF01C
:105360000008FFF75AFA7020FFF7FAFAFFF790FAF1
:10537000E8B2FFF7F5FAFFF78BFA00240BE0305D97
:10538000FFF7EEFAFFF784FA8046B8F1000F00D07D
:1053900003E0601CC4B2BC42F1DB00BFFFF75CFA63
:1053A0004046BDE8F0812DE9F04106460F4615461E
:1053B000FFF733FA7020FFF7D3FAFFF769FAF0B27C
:1053C000FFF7CEFAFFF764FAFFF727FA7120FFF72D
:1053D000C7FAFFF75DFA00240BE0691EA14201D075
:1053E000012100E000210846FFF7E3FA3855601C70
:1053F000C4B2AC42F1DBFFF72FFABDE8F0810EB585
:105400000121062005F06CFF0220009000208DF89D
:10541000040001208DF807006946904805F0C2FCA1
:105420004FF40050009001208DF8040003208DF807
:10543000050000208DF806006946894805F0B2FC99
:10544000FFF7C7F9002087490860142007F045FAE4
:1054500001208549C1F8B402322007F03EFA00204D
:105460008DF80800012202A9FFF774FF012202A9AA
:10547000A420FFF76FFF16208DF80800012202A973
:105480008020FFF767FF0C208DF80800012202A999
:105490008820FFF75FFF022202A9A120FFF783FF08
:1054A0009DF8080030280ED19DF8090003280AD184
:1054B0009DF809009DF8082000EB02216BA027F061
:1054C000F5FF00200EBD0120FCE771B581B000247E
:1054D000002669480078401C674908700846007833
:1054E0000A2190FBF1F201FB120018B1624800782A
:1054F0000A2866DA012201A90220FFF754FF9DF86D
:10550000040000F00F0000287ED09DF8040000F099
:105510000F00062878DA9DF8040000F00F01FF2044
:105520008840C5B2E843C0B240F0C000534981F89A
:10553000200000245AE0514890F820000121A140A9
:105540000840E8B34E4931F8140004226946FFF7D9
:105550002AFF4A4890F8340000F00100C0B19DF8DD
:1055600001009DF8001001F00F0100EB01204349FC
:10557000163121F814009DF803009DF8021001F087
:105580000F0100EB01213D480C3020F814101DE004
:105590009DF801009DF8001001F00F0100EB0120C3
:1055A000C0F5F07081B235480C3020F814109DF829
:1055B00003009DF8021001F00F0100EB012101E052
:1055C00012E021E02D48163020F814109DF800005C
:1055D00000F0F000802807D000212848163020F87D
:1055E00014100A3820F81410601CC4B2052CA2DB79
:1055F00001262248808920B92048C08A08B90020A5
:10560000019000201C4908709DF8040000F01F0064
:10561000D0B91A4890F8200000F0800040B1174837
:1056200090F8200020F08000144981F820000BE061
:105630004FF6FF7011498881C882084690F8200013
:1056400000F0E00081F820000B480078F02802DD2F
:105650000A200949087030467CBD00000004024061
:1056600000080240B402414200004142435450202D
:1056700049443A25780D0A0020000020240000202B
:1056800024F90208002100BF14E000F080021AB1E2
:105690000122FE4B1A6002E00022FC4B1A60420617
:1056A000100E0022FA4B1A600122FA4BC3F8802236
:1056B0004A1CD1B20829E8DB704770B506460025C0
:1056C00000240020F2490860F349C1F8AC02F34914
:1056D00008603046FFF7D6FF062007F0D4F8002018
:1056E000EC49C1F88002012007F0CDF80120E8491B
:1056F000086007F0C8F80020E649C1F8800200BF42
:1057000015E04FF6FF7000EA44040020E04908600D
:10571000012007F0B8F80120DE49C1F88002DC481A
:105720007838006808B1601C84B2681CC5B2102DBE
:10573000E7DB24110120D9490860204670BD2DE91E
:10574000FE4380460027002406E04046FFF7B5FFF1
:105750002DF81400601C84B2052CF6DB002416E042
:10576000601C85B20FE03DF814003DF8151088422A
:1057700007DD3DF814603DF815002DF814002DF8F4
:105780001560681C85B2052DEDDB601C84B2042C0D
:10579000E6DB0027012405E03DF81400384487B219
:1057A000601C84B2042CF7DB032097FBF0F086B278
:1057B0003046BDE8FE832DE9F04104460D46B84869
:1057C0000078FFF7BCFF0646B6480078FFF7B7FF42
:1057D000074626802F800120BDE8F0817FB5044672
:1057E0000D4602A903A8FFF7E6FF064616B90020FA
:1057F00004B070BD694601A8FFF7DDFF06460EB98B
:105800000020F5E7BDF80400BDF80C10884206DC66
:10581000BDF80C10BDF80400323081420CDBBDF83D
:105820000C00BDF80410884236DCBDF80410BDF849
:105830000C00323081422FDABDF80000BDF80810AC
:10584000884206DCBDF80810BDF800003230814205
:105850000CDBBDF80800BDF8001088421CDCBDF868
:105860000010BDF808003230814215DABDF80C1086
:10587000BDF80420881800EBD071C1F34F012180DE
:10588000BDF80810BDF80020881800EBD071C1F3F6
:105890004F0129800120ABE70020A9E770B504463D
:1058A0000D4616468048068004F10D018AB219396A
:1058B00088B22B462946FEF791FA05F10D0083B216
:1058C000193881B222462046FEF788FA6A1C91B246
:1058D000621C90B2FBF704FC6A1C91B2621E90B28B
:1058E000FBF7FEFB6A1E91B2621C90B2FBF7F8FB5D
:1058F0006A1E91B2621E90B2FBF7F2FB06222946A5
:105900002046FEF7E1FA70BD70B504460D46164616
:105910006548068029462046FBF7E2FB611C88B2F9
:105920002946FBF7DDFB681C81B22046FBF7D8FB5C
:105930006A1C91B2621C90B2FBF7D2FB70BD10B52D
:10594000044653487C380068002843D12CB157499D
:10595000A1F10A00FFF742FF2AE05449A1F10A0031
:10596000FFF73CFF20B35148163890ED0B0A90ED3D
:10597000091A808900EE900AF8EE600A01EE200A0A
:10598000BCEEC00A10EE100A484916398881084654
:1059900090ED0C0A90ED0A1AC08A00EE900AF8EE1B
:1059A000600A01EE200ABCEEC00A10EE100AC8829E
:1059B0003E48163890F8200000F0800038BBC02028
:1059C0003A49163981F82000084681898182C18AC6
:1059D000C1831CE03548163890F8200000F08000A4
:1059E00050B13248163890F8200020F080002F493E
:1059F000163981F820000AE000212C4816388182EF
:105A0000C1834FF6FF70294916398881C88227481B
:105A1000163890F8200000F0800010BD10B5234823
:105A2000163890ED090ADFED220A20EE200ABDEEBD
:105A3000C00A10EE104A042221462820FFF74AF837
:105A40001A48163890ED0A0ADFED190A20EE200AEE
:105A5000BDEEC00A10EE104A042221462C20FFF7AA
:105A600039F81248163890ED0B0ABCEEC00A10EE59
:105A7000101A02223020FFF72DF80C48163890ED4E
:105A80000C0ABCEEC00A10EE101A13E0AC824242BF
:105A9000808240420080404200804242B402414243
:105AA0005C0000205D0000201A0000203A00002069
:105AB00020BCBE4C02223220FFF70CF8FE4890F8C2
:105AC00034103420FEF7DEFF0A2421463520FEF78D
:105AD000D9FF10BD10B53520FEF7A8FF04460A2CEB
